S01B00005450315F47696F76616E6E615F3137313838362E7372656304
S11300000C9434000C943E000C943E000C943E007E
S11300100C943E000C943E000C943E000C943E0064
S11300200C943E000C943E000C943E000C943E0054
S11300300C943E000C943E000C943E000C943E0044
S11300400C943E000C943E000C943E000C943E0034
S11300500C943E000C943E000C943E000C943E0024
S11300600C943E000C943E0011241FBECFEFD8E048
S1130070DEBFCDBF0E9448000C944B000C940000DE
S113008017E32DE2120F38E34BE2340F131BFFCFBB
S10D00900E944000FDCFF894FFCF5A
S9030000FC
